{"abi":[{"type":"function","name":"VoteChoice","inputs":[{"name":"_choice","type":"uint8","internalType":"enum Voting.Choice"}],"outputs":[],"stateMutability":"nonpayable"},{"type":"function","name":"changeVote","inputs":[{"name":"id","type":"uint256","internalType":"uint256"},{"name":"_choice","type":"uint8","internalType":"enum Voting.Choice"}],"outputs":[],"stateMutability":"nonpayable"},{"type":"function","name":"hasMadeVote","inputs":[{"name":"voter","type":"address","internalType":"address"}],"outputs":[{"name":"","type":"bool","internalType":"bool"}],"stateMutability":"view"},{"type":"function","name":"votes","inputs":[{"name":"","type":"uint256","internalType":"uint256"}],"outputs":[{"name":"voter","type":"address","internalType":"address"},{"name":"choice","type":"uint8","internalType":"enum Voting.Choice"}],"stateMutability":"view"}],"bytecode":{"object":"0x60c06040526000608081905260a052600280546001600160a81b031916905534801561002a57600080fd5b506105268061003a6000396000f3fe608060405234801561001057600080fd5b506004361061004c5760003560e01c80635df813301461005157806392159dc01461007b578063d1b04f8d14610090578063f9a43b2d146100b3575b600080fd5b61006461005f3660046103be565b6100c6565b6040516100729291906103ed565b60405180910390f35b61008e61008936600461043c565b6100fb565b005b6100a361009e36600461045e565b6101ee565b6040519015158152602001610072565b61008e6100c1366004610487565b610214565b600081815481106100d657600080fd5b6000918252602090912001546001600160a01b0381169150600160a01b900460ff1682565b610104336101ee565b1561014f5760405162461bcd60e51b8152602060048201526016602482015275596f752063616e206f6e6c7920766f7465206f6e636560501b60448201526064015b60405180910390fd5b60006040518060400160405280336001600160a01b0316815260200183600181111561017d5761017d6103d7565b905281546001808201845560009384526020938490208351920180546001600160a01b031981166001600160a01b03909416938417825594840151939490939284926001600160a81b03199092161790600160a01b9084908111156101e4576101e46103d7565b0217905550505050565b6000816001600160a01b031661020383610339565b546001600160a01b03161492915050565b6000808381548110610228576102286104b3565b60009182526020822091549101915083106102765760405162461bcd60e51b815260206004820152600e60248201526d0d2dcecc2d8d2c840d8cadccee8d60931b6044820152606401610146565b80546001600160a01b0316600090815260016020526040812080549161029b836104c9565b909155505080546001600160a01b0316600090815260016020819052604090912054146103155760405162461bcd60e51b815260206004820152602260248201527f796f752063616e206f6e6c79206368616e676520796f757220766f7465206f6e604482015261636560f01b6064820152608401610146565b80548290829060ff60a01b1916600160a01b8360018111156101e4576101e46103d7565b6000805b6000548110156103b557826001600160a01b031660008281548110610364576103646104b3565b6000918252602090912001546001600160a01b0316036103a35760008181548110610391576103916104b3565b90600052602060002001915050919050565b806103ad816104c9565b91505061033d565b50600292915050565b6000602082840312156103d057600080fd5b5035919050565b634e487b7160e01b600052602160045260246000fd5b6001600160a01b0383168152604081016002831061041b57634e487b7160e01b600052602160045260246000fd5b8260208301529392505050565b80356002811061043757600080fd5b919050565b60006020828403121561044e57600080fd5b61045782610428565b9392505050565b60006020828403121561047057600080fd5b81356001600160a01b038116811461045757600080fd5b6000806040838503121561049a57600080fd5b823591506104aa60208401610428565b90509250929050565b634e487b7160e01b600052603260045260246000fd5b6000600182016104e957634e487b7160e01b600052601160045260246000fd5b506001019056fea26469706673582212202569ba610f93ad304c895576ff4646ff63acb91e61dbfc9ca40db0ee688d646964736f6c63430008130033","linkReferences":{}},"methodIdentifiers":{"VoteChoice(uint8)":"92159dc0","changeVote(uint256,uint8)":"f9a43b2d","hasMadeVote(address)":"d1b04f8d","votes(uint256)":"5df81330"},"id":0}